{
	"_format": "hh-sol-artifact-1",
	"contractName": "TokenSeed",
	"sourceName": "contracts/TokenSeed.sol",
	"abi": [
		{
			"anonymous": false,
			"inputs": [
				{
					"indexed": false,
					"internalType": "address",
					"name": "tokenaddress",
					"type": "address"
				},
				{
					"indexed": false,
					"internalType": "address",
					"name": "creator",
					"type": "address"
				},
				{
					"indexed": false,
					"internalType": "string",
					"name": "name",
					"type": "string"
				},
				{
					"indexed": false,
					"internalType": "string",
					"name": "symbol",
					"type": "string"
				},
				{
					"indexed": false,
					"internalType": "uint256",
					"name": "deci",
					"type": "uint256"
				},
				{
					"indexed": false,
					"internalType": "uint256",
					"name": "totalSupply",
					"type": "uint256"
				},
				{
					"indexed": false,
					"internalType": "address",
					"name": "userAddress",
					"type": "address"
				}
			],
			"name": "tokencreated",
			"type": "event"
		},
		{
			"inputs": [
				{
					"internalType": "address",
					"name": "",
					"type": "address"
				}
			],
			"name": "children",
			"outputs": [
				{
					"internalType": "contract Tokens",
					"name": "",
					"type": "address"
				}
			],
			"stateMutability": "view",
			"type": "function"
		},
		{
			"inputs": [
				{
					"internalType": "uint256",
					"name": "supply",
					"type": "uint256"
				},
				{
					"internalType": "uint256",
					"name": "amt",
					"type": "uint256"
				},
				{
					"internalType": "uint256",
					"name": "deci",
					"type": "uint256"
				},
				{
					"internalType": "string",
					"name": "name",
					"type": "string"
				},
				{
					"internalType": "string",
					"name": "symbol",
					"type": "string"
				},
				{
					"internalType": "address",
					"name": "userAddress",
					"type": "address"
				}
			],
			"name": "create",
			"outputs": [
				{
					"internalType": "address",
					"name": "",
					"type": "address"
				}
			],
			"stateMutability": "nonpayable",
			"type": "function"
		}
	],
	"bytecode": "0x608060405234801561001057600080fd5b506128b0806100206000396000f3fe60806040523480156200001157600080fd5b50600436106200003a5760003560e01c8063ce59f230146200003f578063f0018da71462000075575b600080fd5b6200005d600480360381019062000057919062000253565b620000ab565b6040516200006c91906200038f565b60405180910390f35b6200009360048036038101906200008d919062000227565b62000146565b604051620000a2919062000437565b60405180910390f35b600080878787878787604051620000c29062000179565b620000d39695949392919062000454565b604051809103906000f080158015620000f0573d6000803e3d6000fd5b5090507f080a9bce84cab020ff349fc94f3d54a2e84720b875074cdb60157fa0996d52d6813387878a8d89604051620001309796959493929190620003ac565b60405180910390a1809150509695505050505050565b60006020528060005260406000206000915054906101000a900473ffffffffffffffffffffffffffffffffffffffff1681565b6121db80620006a083390190565b60006200019e6200019884620004f8565b620004cf565b905082815260208101848484011115620001b757600080fd5b620001c4848285620005b0565b509392505050565b600081359050620001dd816200066b565b92915050565b600082601f830112620001f557600080fd5b81356200020784826020860162000187565b91505092915050565b600081359050620002218162000685565b92915050565b6000602082840312156200023a57600080fd5b60006200024a84828501620001cc565b91505092915050565b60008060008060008060c087890312156200026d57600080fd5b60006200027d89828a0162000210565b96505060206200029089828a0162000210565b9550506040620002a389828a0162000210565b945050606087013567ffffffffffffffff811115620002c157600080fd5b620002cf89828a01620001e3565b935050608087013567ffffffffffffffff811115620002ed57600080fd5b620002fb89828a01620001e3565b92505060a06200030e89828a01620001cc565b9150509295509295509295565b62000326816200054a565b82525050565b620003378162000588565b82525050565b60006200034a826200052e565b62000356818562000539565b935062000368818560208601620005bf565b62000373816200065a565b840191505092915050565b62000389816200057e565b82525050565b6000602082019050620003a660008301846200031b565b92915050565b600060e082019050620003c3600083018a6200031b565b620003d260208301896200031b565b8181036040830152620003e681886200033d565b90508181036060830152620003fc81876200033d565b90506200040d60808301866200037e565b6200041c60a08301856200037e565b6200042b60c08301846200031b565b98975050505050505050565b60006020820190506200044e60008301846200032c565b92915050565b600060c0820190506200046b60008301896200037e565b6200047a60208301886200037e565b6200048960408301876200037e565b81810360608301526200049d81866200033d565b90508181036080830152620004b381856200033d565b9050620004c460a08301846200031b565b979650505050505050565b6000620004db620004ee565b9050620004e98282620005f5565b919050565b6000604051905090565b600067ffffffffffffffff8211156200051657620005156200062b565b5b62000521826200065a565b9050602081019050919050565b600081519050919050565b600082825260208201905092915050565b600062000557826200055e565b9050919050565b600073ffffffffffffffffffffffffffffffffffffffff82169050919050565b6000819050919050565b600062000595826200059c565b9050919050565b6000620005a9826200055e565b9050919050565b82818337600083830152505050565b60005b83811015620005df578082015181840152602081019050620005c2565b83811115620005ef576000848401525b50505050565b62000600826200065a565b810181811067ffffffffffffffff821117156200062257620006216200062b565b5b80604052505050565b7f4e487b7100000000000000000000000000000000000000000000000000000000600052604160045260246000fd5b6000601f19601f8301169050919050565b62000676816200054a565b81146200068257600080fd5b50565b62000690816200057e565b81146200069c57600080fd5b5056fe60806040523480156200001157600080fd5b50604051620021db380380620021db833981810160405281019062000037919062000488565b828281600390805190602001906200005192919062000338565b5080600490805190602001906200006a92919062000338565b5050506200008d62000081620000e760201b60201c565b620000ef60201b60201c565b83600781905550600754600a620000a59190620006ef565b86620000b291906200082c565b600681905550620000ca8186620001b560201b60201c565b620000db81620000ef60201b60201c565b50505050505062000a75565b600033905090565b6000600560009054906101000a900473ffffffffffffffffffffffffffffffffffffffff16905081600560006101000a81548173ffffffffffffffffffffffffffffffffffffffff021916908373ffffffffffffffffffffffffffffffffffffffff1602179055508173ffffffffffffffffffffffffffffffffffffffff168173ffffffffffffffffffffffffffffffffffffffff167f8be0079c531659141344cd1fd0a4f28419497f9722a3daafe3b4186f6b6457e060405160405180910390a35050565b600073ffffffffffffffffffffffffffffffffffffffff168273ffffffffffffffffffffffffffffffffffffffff16141562000228576040517f08c379a00000000000000000000000000000000000000000000000000000000081526004016200021f9062000588565b60405180910390fd5b6200023c600083836200032e60201b60201c565b806002600082825462000250919062000637565b92505081905550806000808473ffffffffffffffffffffffffffffffffffffffff1673ffffffffffffffffffffffffffffffffffffffff1681526020019081526020016000206000828254620002a7919062000637565b925050819055508173ffffffffffffffffffffffffffffffffffffffff16600073ffffffffffffffffffffffffffffffffffffffff167fddf252ad1be2c89b69c2b068fc378daa952ba7f163c4a11628f55a4df523b3ef836040516200030e9190620005aa565b60405180910390a36200032a600083836200033360201b60201c565b5050565b505050565b505050565b828054620003469062000901565b90600052602060002090601f0160209004810192826200036a5760008555620003b6565b82601f106200038557805160ff1916838001178555620003b6565b82800160010185558215620003b6579182015b82811115620003b557825182559160200191906001019062000398565b5b509050620003c59190620003c9565b5090565b5b80821115620003e4576000816000905550600101620003ca565b5090565b6000620003ff620003f984620005f0565b620005c7565b9050828152602081018484840111156200041857600080fd5b62000425848285620008cb565b509392505050565b6000815190506200043e8162000a41565b92915050565b600082601f8301126200045657600080fd5b815162000468848260208601620003e8565b91505092915050565b600081519050620004828162000a5b565b92915050565b60008060008060008060c08789031215620004a257600080fd5b6000620004b289828a0162000471565b9650506020620004c589828a0162000471565b9550506040620004d889828a0162000471565b945050606087015167ffffffffffffffff811115620004f657600080fd5b6200050489828a0162000444565b935050608087015167ffffffffffffffff8111156200052257600080fd5b6200053089828a0162000444565b92505060a06200054389828a016200042d565b9150509295509295509295565b60006200055f601f8362000626565b91506200056c8262000a18565b602082019050919050565b6200058281620008c1565b82525050565b60006020820190508181036000830152620005a38162000550565b9050919050565b6000602082019050620005c1600083018462000577565b92915050565b6000620005d3620005e6565b9050620005e1828262000937565b919050565b6000604051905090565b600067ffffffffffffffff8211156200060e576200060d620009cb565b5b6200061982620009fa565b9050602081019050919050565b600082825260208201905092915050565b60006200064482620008c1565b91506200065183620008c1565b9250827fffffffffffffffffffffffffffffffffffffffffffffffffffffffffffffffff038211156200068957620006886200096d565b5b828201905092915050565b6000808291508390505b6001851115620006e657808604811115620006be57620006bd6200096d565b5b6001851615620006ce5780820291505b8081029050620006de8562000a0b565b94506200069e565b94509492505050565b6000620006fc82620008c1565b91506200070983620008c1565b9250620007387fffffffffffffffffffffffffffffffffffffffffffffffffffffffffffffffff848462000740565b905092915050565b60008262000752576001905062000825565b8162000762576000905062000825565b81600181146200077b57600281146200078657620007bc565b600191505062000825565b60ff8411156200079b576200079a6200096d565b5b8360020a915084821115620007b557620007b46200096d565b5b5062000825565b5060208310610133831016604e8410600b8410161715620007f65782820a905083811115620007f057620007ef6200096d565b5b62000825565b62000805848484600162000694565b925090508184048111156200081f576200081e6200096d565b5b81810290505b9392505050565b60006200083982620008c1565b91506200084683620008c1565b9250817fffffffffffffffffffffffffffffffffffffffffffffffffffffffffffffffff04831182151516156200088257620008816200096d565b5b828202905092915050565b60006200089a82620008a1565b9050919050565b600073ffffffffffffffffffffffffffffffffffffffff82169050919050565b6000819050919050565b60005b83811015620008eb578082015181840152602081019050620008ce565b83811115620008fb576000848401525b50505050565b600060028204905060018216806200091a57607f821691505b602082108114156200093157620009306200099c565b5b50919050565b6200094282620009fa565b810181811067ffffffffffffffff82111715620009645762000963620009cb565b5b80604052505050565b7f4e487b7100000000000000000000000000000000000000000000000000000000600052601160045260246000fd5b7f4e487b7100000000000000000000000000000000000000000000000000000000600052602260045260246000fd5b7f4e487b7100000000000000000000000000000000000000000000000000000000600052604160045260246000fd5b6000601f19601f8301169050919050565b60008160011c9050919050565b7f45524332303a206d696e7420746f20746865207a65726f206164647265737300600082015250565b62000a4c816200088d565b811462000a5857600080fd5b50565b62000a6681620008c1565b811462000a7257600080fd5b50565b6117568062000a856000396000f3fe608060405234801561001057600080fd5b50600436106100ea5760003560e01c8063715018a61161008c578063a457c2d711610066578063a457c2d71461024f578063a9059cbb1461027f578063dd62ed3e146102af578063f2fde38b146102df576100ea565b8063715018a6146102095780638da5cb5b1461021357806395d89b4114610231576100ea565b806323b872dd116100c857806323b872dd1461015b578063313ce5671461018b57806339509351146101a957806370a08231146101d9576100ea565b806306fdde03146100ef578063095ea7b31461010d57806318160ddd1461013d575b600080fd5b6100f76102fb565b6040516101049190611164565b60405180910390f35b61012760048036038101906101229190610f42565b61038d565b6040516101349190611149565b60405180910390f35b6101456103b0565b60405161015291906112a6565b60405180910390f35b61017560048036038101906101709190610ef3565b6103ba565b6040516101829190611149565b60405180910390f35b6101936103e9565b6040516101a091906112c1565b60405180910390f35b6101c360048036038101906101be9190610f42565b6103f2565b6040516101d09190611149565b60405180910390f35b6101f360048036038101906101ee9190610e8e565b61049c565b60405161020091906112a6565b60405180910390f35b6102116104e4565b005b61021b61056c565b604051610228919061112e565b60405180910390f35b610239610596565b6040516102469190611164565b60405180910390f35b61026960048036038101906102649190610f42565b610628565b6040516102769190611149565b60405180910390f35b61029960048036038101906102949190610f42565b610712565b6040516102a69190611149565b60405180910390f35b6102c960048036038101906102c49190610eb7565b610735565b6040516102d691906112a6565b60405180910390f35b6102f960048036038101906102f49190610e8e565b6107bc565b005b60606003805461030a906113d6565b80601f0160208091040260200160405190810160405280929190818152602001828054610336906113d6565b80156103835780601f1061035857610100808354040283529160200191610383565b820191906000526020600020905b81548152906001019060200180831161036657829003601f168201915b5050505050905090565b6000806103986108b4565b90506103a58185856108bc565b600191505092915050565b6000600254905090565b6000806103c56108b4565b90506103d2858285610a87565b6103dd858585610b13565b60019150509392505050565b60006012905090565b6000806103fd6108b4565b9050610491818585600160008673ffffffffffffffffffffffffffffffffffffffff1673ffffffffffffffffffffffffffffffffffffffff16815260200190815260200160002060008973ffffffffffffffffffffffffffffffffffffffff1673ffffffffffffffffffffffffffffffffffffffff1681526020019081526020016000205461048c91906112f8565b6108bc565b600191505092915050565b60008060008373ffffffffffffffffffffffffffffffffffffffff1673ffffffffffffffffffffffffffffffffffffffff168152602001908152602001600020549050919050565b6104ec6108b4565b73ffffffffffffffffffffffffffffffffffffffff1661050a61056c565b73ffffffffffffffffffffffffffffffffffffffff1614610560576040517f08c379a000000000000000000000000000000000000000000000000000000000815260040161055790611226565b60405180910390fd5b61056a6000610d94565b565b6000600560009054906101000a900473ffffffffffffffffffffffffffffffffffffffff16905090565b6060600480546105a5906113d6565b80601f01602080910402602001604051908101604052809291908181526020018280546105d1906113d6565b801561061e5780601f106105f35761010080835404028352916020019161061e565b820191906000526020600020905b81548152906001019060200180831161060157829003601f168201915b5050505050905090565b6000806106336108b4565b90506000600160008373ffffffffffffffffffffffffffffffffffffffff1673ffffffffffffffffffffffffffffffffffffffff16815260200190815260200160002060008673ffffffffffffffffffffffffffffffffffffffff1673ffffffffffffffffffffffffffffffffffffffff168152602001908152602001600020549050838110156106f9576040517f08c379a00000000000000000000000000000000000000000000000000000000081526004016106f090611286565b60405180910390fd5b61070682868684036108bc565b60019250505092915050565b60008061071d6108b4565b905061072a818585610b13565b600191505092915050565b6000600160008473ffffffffffffffffffffffffffffffffffffffff1673ffffffffffffffffffffffffffffffffffffffff16815260200190815260200160002060008373ffffffffffffffffffffffffffffffffffffffff1673ffffffffffffffffffffffffffffffffffffffff16815260200190815260200160002054905092915050565b6107c46108b4565b73ffffffffffffffffffffffffffffffffffffffff166107e261056c565b73ffffffffffffffffffffffffffffffffffffffff1614610838576040517f08c379a000000000000000000000000000000000000000000000000000000000815260040161082f90611226565b60405180910390fd5b600073ffffffffffffffffffffffffffffffffffffffff168173ffffffffffffffffffffffffffffffffffffffff1614156108a8576040517f08c379a000000000000000000000000000000000000000000000000000000000815260040161089f906111a6565b60405180910390fd5b6108b181610d94565b50565b600033905090565b600073ffffffffffffffffffffffffffffffffffffffff168373ffffffffffffffffffffffffffffffffffffffff16141561092c576040517f08c379a000000000000000000000000000000000000000000000000000000000815260040161092390611266565b60405180910390fd5b600073ffffffffffffffffffffffffffffffffffffffff168273ffffffffffffffffffffffffffffffffffffffff16141561099c576040517f08c379a0000000000000000000000000000000000000000000000000000000008152600401610993906111c6565b60405180910390fd5b80600160008573ffffffffffffffffffffffffffffffffffffffff1673ffffffffffffffffffffffffffffffffffffffff16815260200190815260200160002060008473ffffffffffffffffffffffffffffffffffffffff1673ffffffffffffffffffffffffffffffffffffffff168152602001908152602001600020819055508173ffffffffffffffffffffffffffffffffffffffff168373ffffffffffffffffffffffffffffffffffffffff167f8c5be1e5ebec7d5bd14f71427d1e84f3dd0314c0f7b2291e5b200ac8c7c3b92583604051610a7a91906112a6565b60405180910390a3505050565b6000610a938484610735565b90507fffffffffffffffffffffffffffffffffffffffffffffffffffffffffffffffff8114610b0d5781811015610aff576040517f08c379a0000000000000000000000000000000000000000000000000000000008152600401610af6906111e6565b60405180910390fd5b610b0c84848484036108bc565b5b50505050565b600073ffffffffffffffffffffffffffffffffffffffff168373ffffffffffffffffffffffffffffffffffffffff161415610b83576040517f08c379a0000000000000000000000000000000000000000000000000000000008152600401610b7a90611246565b60405180910390fd5b600073ffffffffffffffffffffffffffffffffffffffff168273ffffffffffffffffffffffffffffffffffffffff161415610bf3576040517f08c379a0000000000000000000000000000000000000000000000000000000008152600401610bea90611186565b60405180910390fd5b610bfe838383610e5a565b60008060008573ffffffffffffffffffffffffffffffffffffffff1673ffffffffffffffffffffffffffffffffffffffff16815260200190815260200160002054905081811015610c84576040517f08c379a0000000000000000000000000000000000000000000000000000000008152600401610c7b90611206565b60405180910390fd5b8181036000808673ffffffffffffffffffffffffffffffffffffffff1673ffffffffffffffffffffffffffffffffffffffff16815260200190815260200160002081905550816000808573ffffffffffffffffffffffffffffffffffffffff1673ffffffffffffffffffffffffffffffffffffffff1681526020019081526020016000206000828254610d1791906112f8565b925050819055508273ffffffffffffffffffffffffffffffffffffffff168473ffffffffffffffffffffffffffffffffffffffff167fddf252ad1be2c89b69c2b068fc378daa952ba7f163c4a11628f55a4df523b3ef84604051610d7b91906112a6565b60405180910390a3610d8e848484610e5f565b50505050565b6000600560009054906101000a900473ffffffffffffffffffffffffffffffffffffffff16905081600560006101000a81548173ffffffffffffffffffffffffffffffffffffffff021916908373ffffffffffffffffffffffffffffffffffffffff1602179055508173ffffffffffffffffffffffffffffffffffffffff168173ffffffffffffffffffffffffffffffffffffffff167f8be0079c531659141344cd1fd0a4f28419497f9722a3daafe3b4186f6b6457e060405160405180910390a35050565b505050565b505050565b600081359050610e73816116f2565b92915050565b600081359050610e8881611709565b92915050565b600060208284031215610ea057600080fd5b6000610eae84828501610e64565b91505092915050565b60008060408385031215610eca57600080fd5b6000610ed885828601610e64565b9250506020610ee985828601610e64565b9150509250929050565b600080600060608486031215610f0857600080fd5b6000610f1686828701610e64565b9350506020610f2786828701610e64565b9250506040610f3886828701610e79565b9150509250925092565b60008060408385031215610f5557600080fd5b6000610f6385828601610e64565b9250506020610f7485828601610e79565b9150509250929050565b610f878161134e565b82525050565b610f9681611360565b82525050565b6000610fa7826112dc565b610fb181856112e7565b9350610fc18185602086016113a3565b610fca81611466565b840191505092915050565b6000610fe26023836112e7565b9150610fed82611477565b604082019050919050565b60006110056026836112e7565b9150611010826114c6565b604082019050919050565b60006110286022836112e7565b915061103382611515565b604082019050919050565b600061104b601d836112e7565b915061105682611564565b602082019050919050565b600061106e6026836112e7565b91506110798261158d565b604082019050919050565b60006110916020836112e7565b915061109c826115dc565b602082019050919050565b60006110b46025836112e7565b91506110bf82611605565b604082019050919050565b60006110d76024836112e7565b91506110e282611654565b604082019050919050565b60006110fa6025836112e7565b9150611105826116a3565b604082019050919050565b6111198161138c565b82525050565b61112881611396565b82525050565b60006020820190506111436000830184610f7e565b92915050565b600060208201905061115e6000830184610f8d565b92915050565b6000602082019050818103600083015261117e8184610f9c565b905092915050565b6000602082019050818103600083015261119f81610fd5565b9050919050565b600060208201905081810360008301526111bf81610ff8565b9050919050565b600060208201905081810360008301526111df8161101b565b9050919050565b600060208201905081810360008301526111ff8161103e565b9050919050565b6000602082019050818103600083015261121f81611061565b9050919050565b6000602082019050818103600083015261123f81611084565b9050919050565b6000602082019050818103600083015261125f816110a7565b9050919050565b6000602082019050818103600083015261127f816110ca565b9050919050565b6000602082019050818103600083015261129f816110ed565b9050919050565b60006020820190506112bb6000830184611110565b92915050565b60006020820190506112d6600083018461111f565b92915050565b600081519050919050565b600082825260208201905092915050565b60006113038261138c565b915061130e8361138c565b9250827fffffffffffffffffffffffffffffffffffffffffffffffffffffffffffffffff0382111561134357611342611408565b5b828201905092915050565b60006113598261136c565b9050919050565b60008115159050919050565b600073ffffffffffffffffffffffffffffffffffffffff82169050919050565b6000819050919050565b600060ff82169050919050565b60005b838110156113c15780820151818401526020810190506113a6565b838111156113d0576000848401525b50505050565b600060028204905060018216806113ee57607f821691505b6020821081141561140257611401611437565b5b50919050565b7f4e487b7100000000000000000000000000000000000000000000000000000000600052601160045260246000fd5b7f4e487b7100000000000000000000000000000000000000000000000000000000600052602260045260246000fd5b6000601f19601f8301169050919050565b7f45524332303a207472616e7366657220746f20746865207a65726f206164647260008201527f6573730000000000000000000000000000000000000000000000000000000000602082015250565b7f4f776e61626c653a206e6577206f776e657220697320746865207a65726f206160008201527f6464726573730000000000000000000000000000000000000000000000000000602082015250565b7f45524332303a20617070726f766520746f20746865207a65726f20616464726560008201527f7373000000000000000000000000000000000000000000000000000000000000602082015250565b7f45524332303a20696e73756666696369656e7420616c6c6f77616e6365000000600082015250565b7f45524332303a207472616e7366657220616d6f756e742065786365656473206260008201527f616c616e63650000000000000000000000000000000000000000000000000000602082015250565b7f4f776e61626c653a2063616c6c6572206973206e6f7420746865206f776e6572600082015250565b7f45524332303a207472616e736665722066726f6d20746865207a65726f20616460008201527f6472657373000000000000000000000000000000000000000000000000000000602082015250565b7f45524332303a20617070726f76652066726f6d20746865207a65726f2061646460008201527f7265737300000000000000000000000000000000000000000000000000000000602082015250565b7f45524332303a2064656372656173656420616c6c6f77616e63652062656c6f7760008201527f207a65726f000000000000000000000000000000000000000000000000000000602082015250565b6116fb8161134e565b811461170657600080fd5b50565b6117128161138c565b811461171d57600080fd5b5056fea2646970667358221220803ffb9b94c509185a826a99733ceb0936ddc0b2a2a54162aa3e960fb92b5e9a64736f6c63430008020033a264697066735822122070e569f673aa49d4cedee5c4ab67094d16f1827ff6b2fec2ed4f51d9a4df3bc664736f6c63430008020033",
	"linkReferences": {},
	"deployedLinkReferences": {}
}