{
	"_format": "hh-sol-artifact-1",
	"contractName": "Tokens",
	"sourceName": "contracts/Tokens.sol",
	"abi": [
		{
			"inputs": [
				{
					"internalType": "uint256",
					"name": "supply",
					"type": "uint256"
				},
				{
					"internalType": "uint256",
					"name": "amt",
					"type": "uint256"
				},
				{
					"internalType": "uint256",
					"name": "_deci",
					"type": "uint256"
				},
				{
					"internalType": "string",
					"name": "name",
					"type": "string"
				},
				{
					"internalType": "string",
					"name": "symbol",
					"type": "string"
				},
				{
					"internalType": "address",
					"name": "creator",
					"type": "address"
				}
			],
			"stateMutability": "nonpayable",
			"type": "constructor"
		},
		{
			"anonymous": false,
			"inputs": [
				{
					"indexed": true,
					"internalType": "address",
					"name": "owner",
					"type": "address"
				},
				{
					"indexed": true,
					"internalType": "address",
					"name": "spender",
					"type": "address"
				},
				{
					"indexed": false,
					"internalType": "uint256",
					"name": "value",
					"type": "uint256"
				}
			],
			"name": "Approval",
			"type": "event"
		},
		{
			"anonymous": false,
			"inputs": [
				{
					"indexed": false,
					"internalType": "address",
					"name": "from",
					"type": "address"
				},
				{
					"indexed": false,
					"internalType": "address",
					"name": "to",
					"type": "address"
				},
				{
					"indexed": false,
					"internalType": "address",
					"name": "tokenaddress",
					"type": "address"
				},
				{
					"indexed": false,
					"internalType": "uint256",
					"name": "amt",
					"type": "uint256"
				}
			],
			"name": "ManualTransfer",
			"type": "event"
		},
		{
			"anonymous": false,
			"inputs": [
				{
					"indexed": true,
					"internalType": "address",
					"name": "previousOwner",
					"type": "address"
				},
				{
					"indexed": true,
					"internalType": "address",
					"name": "newOwner",
					"type": "address"
				}
			],
			"name": "OwnershipTransferred",
			"type": "event"
		},
		{
			"anonymous": false,
			"inputs": [
				{
					"indexed": true,
					"internalType": "address",
					"name": "from",
					"type": "address"
				},
				{
					"indexed": true,
					"internalType": "address",
					"name": "to",
					"type": "address"
				},
				{
					"indexed": false,
					"internalType": "uint256",
					"name": "value",
					"type": "uint256"
				}
			],
			"name": "Transfer",
			"type": "event"
		},
		{
			"inputs": [
				{
					"internalType": "address",
					"name": "owner",
					"type": "address"
				},
				{
					"internalType": "address",
					"name": "spender",
					"type": "address"
				}
			],
			"name": "allowance",
			"outputs": [
				{
					"internalType": "uint256",
					"name": "",
					"type": "uint256"
				}
			],
			"stateMutability": "view",
			"type": "function"
		},
		{
			"inputs": [
				{
					"internalType": "address",
					"name": "spender",
					"type": "address"
				},
				{
					"internalType": "uint256",
					"name": "amount",
					"type": "uint256"
				}
			],
			"name": "approve",
			"outputs": [
				{
					"internalType": "bool",
					"name": "",
					"type": "bool"
				}
			],
			"stateMutability": "nonpayable",
			"type": "function"
		},
		{
			"inputs": [
				{
					"internalType": "address",
					"name": "account",
					"type": "address"
				}
			],
			"name": "balanceOf",
			"outputs": [
				{
					"internalType": "uint256",
					"name": "",
					"type": "uint256"
				}
			],
			"stateMutability": "view",
			"type": "function"
		},
		{
			"inputs": [],
			"name": "decimals",
			"outputs": [
				{
					"internalType": "uint8",
					"name": "",
					"type": "uint8"
				}
			],
			"stateMutability": "view",
			"type": "function"
		},
		{
			"inputs": [
				{
					"internalType": "address",
					"name": "spender",
					"type": "address"
				},
				{
					"internalType": "uint256",
					"name": "subtractedValue",
					"type": "uint256"
				}
			],
			"name": "decreaseAllowance",
			"outputs": [
				{
					"internalType": "bool",
					"name": "",
					"type": "bool"
				}
			],
			"stateMutability": "nonpayable",
			"type": "function"
		},
		{
			"inputs": [
				{
					"internalType": "address",
					"name": "spender",
					"type": "address"
				},
				{
					"internalType": "uint256",
					"name": "addedValue",
					"type": "uint256"
				}
			],
			"name": "increaseAllowance",
			"outputs": [
				{
					"internalType": "bool",
					"name": "",
					"type": "bool"
				}
			],
			"stateMutability": "nonpayable",
			"type": "function"
		},
		{
			"inputs": [],
			"name": "name",
			"outputs": [
				{
					"internalType": "string",
					"name": "",
					"type": "string"
				}
			],
			"stateMutability": "view",
			"type": "function"
		},
		{
			"inputs": [],
			"name": "owner",
			"outputs": [
				{
					"internalType": "address",
					"name": "",
					"type": "address"
				}
			],
			"stateMutability": "view",
			"type": "function"
		},
		{
			"inputs": [],
			"name": "renounceOwnership",
			"outputs": [],
			"stateMutability": "nonpayable",
			"type": "function"
		},
		{
			"inputs": [],
			"name": "symbol",
			"outputs": [
				{
					"internalType": "string",
					"name": "",
					"type": "string"
				}
			],
			"stateMutability": "view",
			"type": "function"
		},
		{
			"inputs": [],
			"name": "totalSupply",
			"outputs": [
				{
					"internalType": "uint256",
					"name": "",
					"type": "uint256"
				}
			],
			"stateMutability": "view",
			"type": "function"
		},
		{
			"inputs": [
				{
					"internalType": "address",
					"name": "to",
					"type": "address"
				},
				{
					"internalType": "uint256",
					"name": "amount",
					"type": "uint256"
				}
			],
			"name": "transfer",
			"outputs": [
				{
					"internalType": "bool",
					"name": "",
					"type": "bool"
				}
			],
			"stateMutability": "nonpayable",
			"type": "function"
		},
		{
			"inputs": [
				{
					"internalType": "address",
					"name": "from",
					"type": "address"
				},
				{
					"internalType": "address",
					"name": "to",
					"type": "address"
				},
				{
					"internalType": "uint256",
					"name": "amount",
					"type": "uint256"
				}
			],
			"name": "transferFrom",
			"outputs": [
				{
					"internalType": "bool",
					"name": "",
					"type": "bool"
				}
			],
			"stateMutability": "nonpayable",
			"type": "function"
		},
		{
			"inputs": [
				{
					"internalType": "address",
					"name": "newOwner",
					"type": "address"
				}
			],
			"name": "transferOwnership",
			"outputs": [],
			"stateMutability": "nonpayable",
			"type": "function"
		}
	],
	"bytecode": "0x60806040523480156200001157600080fd5b506040516200260738038062002607833981810160405281019062000037919062000604565b8282816003908051906020019062000051929190620004b4565b5080600490805190602001906200006a929190620004b4565b5050506200008d62000081620000e760201b60201c565b620000ef60201b60201c565b83600781905550600754600a620000a59190620008fd565b86620000b2919062000a3a565b600681905550620000ca8186620001b560201b60201c565b620000db81620000ef60201b60201c565b50505050505062000cd5565b600033905090565b6000600560009054906101000a900473ffffffffffffffffffffffffffffffffffffffff16905081600560006101000a81548173ffffffffffffffffffffffffffffffffffffffff021916908373ffffffffffffffffffffffffffffffffffffffff1602179055508173ffffffffffffffffffffffffffffffffffffffff168173ffffffffffffffffffffffffffffffffffffffff167f8be0079c531659141344cd1fd0a4f28419497f9722a3daafe3b4186f6b6457e060405160405180910390a35050565b620001c5620000e760201b60201c565b73ffffffffffffffffffffffffffffffffffffffff16620001eb620002fd60201b60201c565b73ffffffffffffffffffffffffffffffffffffffff161462000244576040517f08c379a00000000000000000000000000000000000000000000000000000000081526004016200023b9062000774565b60405180910390fd5b600654600754600a620002589190620008fd565b8262000265919062000a3a565b620002756200032760201b60201c565b62000281919062000845565b1115620002c5576040517f08c379a0000000000000000000000000000000000000000000000000000000008152600401620002bc9062000752565b60405180910390fd5b620002f982600754600a620002db9190620008fd565b83620002e8919062000a3a565b6200033160201b620008b41760201c565b5050565b6000600560009054906101000a900473ffffffffffffffffffffffffffffffffffffffff16905090565b6000600254905090565b600073ffffffffffffffffffffffffffffffffffffffff168273ffffffffffffffffffffffffffffffffffffffff161415620003a4576040517f08c379a00000000000000000000000000000000000000000000000000000000081526004016200039b9062000796565b60405180910390fd5b620003b860008383620004aa60201b60201c565b8060026000828254620003cc919062000845565b92505081905550806000808473ffffffffffffffffffffffffffffffffffffffff1673ffffffffffffffffffffffffffffffffffffffff168152602001908152602001600020600082825462000423919062000845565b925050819055508173ffffffffffffffffffffffffffffffffffffffff16600073ffffffffffffffffffffffffffffffffffffffff167fddf252ad1be2c89b69c2b068fc378daa952ba7f163c4a11628f55a4df523b3ef836040516200048a9190620007b8565b60405180910390a3620004a660008383620004af60201b60201c565b5050565b505050565b505050565b828054620004c29062000b0f565b90600052602060002090601f016020900481019282620004e6576000855562000532565b82601f106200050157805160ff191683800117855562000532565b8280016001018555821562000532579182015b828111156200053157825182559160200191906001019062000514565b5b50905062000541919062000545565b5090565b5b808211156200056057600081600090555060010162000546565b5090565b60006200057b6200057584620007fe565b620007d5565b9050828152602081018484840111156200059457600080fd5b620005a184828562000ad9565b509392505050565b600081519050620005ba8162000ca1565b92915050565b600082601f830112620005d257600080fd5b8151620005e484826020860162000564565b91505092915050565b600081519050620005fe8162000cbb565b92915050565b60008060008060008060c087890312156200061e57600080fd5b60006200062e89828a01620005ed565b96505060206200064189828a01620005ed565b95505060406200065489828a01620005ed565b945050606087015167ffffffffffffffff8111156200067257600080fd5b6200068089828a01620005c0565b935050608087015167ffffffffffffffff8111156200069e57600080fd5b620006ac89828a01620005c0565b92505060a0620006bf89828a01620005a9565b9150509295509295509295565b6000620006db60108362000834565b9150620006e88262000c26565b602082019050919050565b60006200070260208362000834565b91506200070f8262000c4f565b602082019050919050565b600062000729601f8362000834565b9150620007368262000c78565b602082019050919050565b6200074c8162000acf565b82525050565b600060208201905081810360008301526200076d81620006cc565b9050919050565b600060208201905081810360008301526200078f81620006f3565b9050919050565b60006020820190508181036000830152620007b1816200071a565b9050919050565b6000602082019050620007cf600083018462000741565b92915050565b6000620007e1620007f4565b9050620007ef828262000b45565b919050565b6000604051905090565b600067ffffffffffffffff8211156200081c576200081b62000bd9565b5b620008278262000c08565b9050602081019050919050565b600082825260208201905092915050565b6000620008528262000acf565b91506200085f8362000acf565b9250827fffffffffffffffffffffffffffffffffffffffffffffffffffffffffffffffff0382111562000897576200089662000b7b565b5b828201905092915050565b6000808291508390505b6001851115620008f457808604811115620008cc57620008cb62000b7b565b5b6001851615620008dc5780820291505b8081029050620008ec8562000c19565b9450620008ac565b94509492505050565b60006200090a8262000acf565b9150620009178362000acf565b9250620009467fffffffffffffffffffffffffffffffffffffffffffffffffffffffffffffffff84846200094e565b905092915050565b60008262000960576001905062000a33565b8162000970576000905062000a33565b81600181146200098957600281146200099457620009ca565b600191505062000a33565b60ff841115620009a957620009a862000b7b565b5b8360020a915084821115620009c357620009c262000b7b565b5b5062000a33565b5060208310610133831016604e8410600b841016171562000a045782820a905083811115620009fe57620009fd62000b7b565b5b62000a33565b62000a138484846001620008a2565b9250905081840481111562000a2d5762000a2c62000b7b565b5b81810290505b9392505050565b600062000a478262000acf565b915062000a548362000acf565b9250817fffffffffffffffffffffffffffffffffffffffffffffffffffffffffffffffff048311821515161562000a905762000a8f62000b7b565b5b828202905092915050565b600062000aa88262000aaf565b9050919050565b600073ffffffffffffffffffffffffffffffffffffffff82169050919050565b6000819050919050565b60005b8381101562000af957808201518184015260208101905062000adc565b8381111562000b09576000848401525b50505050565b6000600282049050600182168062000b2857607f821691505b6020821081141562000b3f5762000b3e62000baa565b5b50919050565b62000b508262000c08565b810181811067ffffffffffffffff8211171562000b725762000b7162000bd9565b5b80604052505050565b7f4e487b7100000000000000000000000000000000000000000000000000000000600052601160045260246000fd5b7f4e487b7100000000000000000000000000000000000000000000000000000000600052602260045260246000fd5b7f4e487b7100000000000000000000000000000000000000000000000000000000600052604160045260246000fd5b6000601f19601f8301169050919050565b60008160011c9050919050565b7f457863656564696e6720737570706c7900000000000000000000000000000000600082015250565b7f4f776e61626c653a2063616c6c6572206973206e6f7420746865206f776e6572600082015250565b7f45524332303a206d696e7420746f20746865207a65726f206164647265737300600082015250565b62000cac8162000a9b565b811462000cb857600080fd5b50565b62000cc68162000acf565b811462000cd257600080fd5b50565b6119228062000ce56000396000f3fe608060405234801561001057600080fd5b50600436106100ea5760003560e01c8063715018a61161008c578063a457c2d711610066578063a457c2d71461024f578063a9059cbb1461027f578063dd62ed3e146102af578063f2fde38b146102df576100ea565b8063715018a6146102095780638da5cb5b1461021357806395d89b4114610231576100ea565b806323b872dd116100c857806323b872dd1461015b578063313ce5671461018b57806339509351146101a957806370a08231146101d9576100ea565b806306fdde03146100ef578063095ea7b31461010d57806318160ddd1461013d575b600080fd5b6100f76102fb565b60405161010491906112e7565b60405180910390f35b610127600480360381019061012291906110a2565b61038d565b60405161013491906112cc565b60405180910390f35b6101456103b0565b6040516101529190611449565b60405180910390f35b61017560048036038101906101709190611053565b6103ba565b60405161018291906112cc565b60405180910390f35b6101936103e9565b6040516101a09190611464565b60405180910390f35b6101c360048036038101906101be91906110a2565b6103f2565b6040516101d091906112cc565b60405180910390f35b6101f360048036038101906101ee9190610fee565b61049c565b6040516102009190611449565b60405180910390f35b6102116104e4565b005b61021b61056c565b60405161022891906112b1565b60405180910390f35b610239610596565b60405161024691906112e7565b60405180910390f35b610269600480360381019061026491906110a2565b610628565b60405161027691906112cc565b60405180910390f35b610299600480360381019061029491906110a2565b610712565b6040516102a691906112cc565b60405180910390f35b6102c960048036038101906102c49190611017565b610735565b6040516102d69190611449565b60405180910390f35b6102f960048036038101906102f49190610fee565b6107bc565b005b60606003805461030a90611579565b80601f016020809104026020016040519081016040528092919081815260200182805461033690611579565b80156103835780601f1061035857610100808354040283529160200191610383565b820191906000526020600020905b81548152906001019060200180831161036657829003601f168201915b5050505050905090565b600080610398610a14565b90506103a5818585610a1c565b600191505092915050565b6000600254905090565b6000806103c5610a14565b90506103d2858285610be7565b6103dd858585610c73565b60019150509392505050565b60006012905090565b6000806103fd610a14565b9050610491818585600160008673ffffffffffffffffffffffffffffffffffffffff1673ffffffffffffffffffffffffffffffffffffffff16815260200190815260200160002060008973ffffffffffffffffffffffffffffffffffffffff1673ffffffffffffffffffffffffffffffffffffffff1681526020019081526020016000205461048c919061149b565b610a1c565b600191505092915050565b60008060008373ffffffffffffffffffffffffffffffffffffffff1673ffffffffffffffffffffffffffffffffffffffff168152602001908152602001600020549050919050565b6104ec610a14565b73ffffffffffffffffffffffffffffffffffffffff1661050a61056c565b73ffffffffffffffffffffffffffffffffffffffff1614610560576040517f08c379a0000000000000000000000000000000000000000000000000000000008152600401610557906113a9565b60405180910390fd5b61056a6000610ef4565b565b6000600560009054906101000a900473ffffffffffffffffffffffffffffffffffffffff16905090565b6060600480546105a590611579565b80601f01602080910402602001604051908101604052809291908181526020018280546105d190611579565b801561061e5780601f106105f35761010080835404028352916020019161061e565b820191906000526020600020905b81548152906001019060200180831161060157829003601f168201915b5050505050905090565b600080610633610a14565b90506000600160008373ffffffffffffffffffffffffffffffffffffffff1673ffffffffffffffffffffffffffffffffffffffff16815260200190815260200160002060008673ffffffffffffffffffffffffffffffffffffffff1673ffffffffffffffffffffffffffffffffffffffff168152602001908152602001600020549050838110156106f9576040517f08c379a00000000000000000000000000000000000000000000000000000000081526004016106f090611409565b60405180910390fd5b6107068286868403610a1c565b60019250505092915050565b60008061071d610a14565b905061072a818585610c73565b600191505092915050565b6000600160008473ffffffffffffffffffffffffffffffffffffffff1673ffffffffffffffffffffffffffffffffffffffff16815260200190815260200160002060008373ffffffffffffffffffffffffffffffffffffffff1673ffffffffffffffffffffffffffffffffffffffff16815260200190815260200160002054905092915050565b6107c4610a14565b73ffffffffffffffffffffffffffffffffffffffff166107e261056c565b73ffffffffffffffffffffffffffffffffffffffff1614610838576040517f08c379a000000000000000000000000000000000000000000000000000000000815260040161082f906113a9565b60405180910390fd5b600073ffffffffffffffffffffffffffffffffffffffff168173ffffffffffffffffffffffffffffffffffffffff1614156108a8576040517f08c379a000000000000000000000000000000000000000000000000000000000815260040161089f90611329565b60405180910390fd5b6108b181610ef4565b50565b600073ffffffffffffffffffffffffffffffffffffffff168273ffffffffffffffffffffffffffffffffffffffff161415610924576040517f08c379a000000000000000000000000000000000000000000000000000000000815260040161091b90611429565b60405180910390fd5b61093060008383610fba565b8060026000828254610942919061149b565b92505081905550806000808473ffffffffffffffffffffffffffffffffffffffff1673ffffffffffffffffffffffffffffffffffffffff1681526020019081526020016000206000828254610997919061149b565b925050819055508173ffffffffffffffffffffffffffffffffffffffff16600073ffffffffffffffffffffffffffffffffffffffff167fddf252ad1be2c89b69c2b068fc378daa952ba7f163c4a11628f55a4df523b3ef836040516109fc9190611449565b60405180910390a3610a1060008383610fbf565b5050565b600033905090565b600073ffffffffffffffffffffffffffffffffffffffff168373ffffffffffffffffffffffffffffffffffffffff161415610a8c576040517f08c379a0000000000000000000000000000000000000000000000000000000008152600401610a83906113e9565b60405180910390fd5b600073ffffffffffffffffffffffffffffffffffffffff168273ffffffffffffffffffffffffffffffffffffffff161415610afc576040517f08c379a0000000000000000000000000000000000000000000000000000000008152600401610af390611349565b60405180910390fd5b80600160008573ffffffffffffffffffffffffffffffffffffffff1673ffffffffffffffffffffffffffffffffffffffff16815260200190815260200160002060008473ffffffffffffffffffffffffffffffffffffffff1673ffffffffffffffffffffffffffffffffffffffff168152602001908152602001600020819055508173ffffffffffffffffffffffffffffffffffffffff168373ffffffffffffffffffffffffffffffffffffffff167f8c5be1e5ebec7d5bd14f71427d1e84f3dd0314c0f7b2291e5b200ac8c7c3b92583604051610bda9190611449565b60405180910390a3505050565b6000610bf38484610735565b90507fffffffffffffffffffffffffffffffffffffffffffffffffffffffffffffffff8114610c6d5781811015610c5f576040517f08c379a0000000000000000000000000000000000000000000000000000000008152600401610c5690611369565b60405180910390fd5b610c6c8484848403610a1c565b5b50505050565b600073ffffffffffffffffffffffffffffffffffffffff168373ffffffffffffffffffffffffffffffffffffffff161415610ce3576040517f08c379a0000000000000000000000000000000000000000000000000000000008152600401610cda906113c9565b60405180910390fd5b600073ffffffffffffffffffffffffffffffffffffffff168273ffffffffffffffffffffffffffffffffffffffff161415610d53576040517f08c379a0000000000000000000000000000000000000000000000000000000008152600401610d4a90611309565b60405180910390fd5b610d5e838383610fba565b60008060008573ffffffffffffffffffffffffffffffffffffffff1673ffffffffffffffffffffffffffffffffffffffff16815260200190815260200160002054905081811015610de4576040517f08c379a0000000000000000000000000000000000000000000000000000000008152600401610ddb90611389565b60405180910390fd5b8181036000808673ffffffffffffffffffffffffffffffffffffffff1673ffffffffffffffffffffffffffffffffffffffff16815260200190815260200160002081905550816000808573ffffffffffffffffffffffffffffffffffffffff1673ffffffffffffffffffffffffffffffffffffffff1681526020019081526020016000206000828254610e77919061149b565b925050819055508273ffffffffffffffffffffffffffffffffffffffff168473ffffffffffffffffffffffffffffffffffffffff167fddf252ad1be2c89b69c2b068fc378daa952ba7f163c4a11628f55a4df523b3ef84604051610edb9190611449565b60405180910390a3610eee848484610fbf565b50505050565b6000600560009054906101000a900473ffffffffffffffffffffffffffffffffffffffff16905081600560006101000a81548173ffffffffffffffffffffffffffffffffffffffff021916908373ffffffffffffffffffffffffffffffffffffffff1602179055508173ffffffffffffffffffffffffffffffffffffffff168173ffffffffffffffffffffffffffffffffffffffff167f8be0079c531659141344cd1fd0a4f28419497f9722a3daafe3b4186f6b6457e060405160405180910390a35050565b505050565b505050565b600081359050610fd3816118be565b92915050565b600081359050610fe8816118d5565b92915050565b60006020828403121561100057600080fd5b600061100e84828501610fc4565b91505092915050565b6000806040838503121561102a57600080fd5b600061103885828601610fc4565b925050602061104985828601610fc4565b9150509250929050565b60008060006060848603121561106857600080fd5b600061107686828701610fc4565b935050602061108786828701610fc4565b925050604061109886828701610fd9565b9150509250925092565b600080604083850312156110b557600080fd5b60006110c385828601610fc4565b92505060206110d485828601610fd9565b9150509250929050565b6110e7816114f1565b82525050565b6110f681611503565b82525050565b60006111078261147f565b611111818561148a565b9350611121818560208601611546565b61112a81611609565b840191505092915050565b600061114260238361148a565b915061114d8261161a565b604082019050919050565b600061116560268361148a565b915061117082611669565b604082019050919050565b600061118860228361148a565b9150611193826116b8565b604082019050919050565b60006111ab601d8361148a565b91506111b682611707565b602082019050919050565b60006111ce60268361148a565b91506111d982611730565b604082019050919050565b60006111f160208361148a565b91506111fc8261177f565b602082019050919050565b600061121460258361148a565b915061121f826117a8565b604082019050919050565b600061123760248361148a565b9150611242826117f7565b604082019050919050565b600061125a60258361148a565b915061126582611846565b604082019050919050565b600061127d601f8361148a565b915061128882611895565b602082019050919050565b61129c8161152f565b82525050565b6112ab81611539565b82525050565b60006020820190506112c660008301846110de565b92915050565b60006020820190506112e160008301846110ed565b92915050565b6000602082019050818103600083015261130181846110fc565b905092915050565b6000602082019050818103600083015261132281611135565b9050919050565b6000602082019050818103600083015261134281611158565b9050919050565b600060208201905081810360008301526113628161117b565b9050919050565b600060208201905081810360008301526113828161119e565b9050919050565b600060208201905081810360008301526113a2816111c1565b9050919050565b600060208201905081810360008301526113c2816111e4565b9050919050565b600060208201905081810360008301526113e281611207565b9050919050565b600060208201905081810360008301526114028161122a565b9050919050565b600060208201905081810360008301526114228161124d565b9050919050565b6000602082019050818103600083015261144281611270565b9050919050565b600060208201905061145e6000830184611293565b92915050565b600060208201905061147960008301846112a2565b92915050565b600081519050919050565b600082825260208201905092915050565b60006114a68261152f565b91506114b18361152f565b9250827fffffffffffffffffffffffffffffffffffffffffffffffffffffffffffffffff038211156114e6576114e56115ab565b5b828201905092915050565b60006114fc8261150f565b9050919050565b60008115159050919050565b600073ffffffffffffffffffffffffffffffffffffffff82169050919050565b6000819050919050565b600060ff82169050919050565b60005b83811015611564578082015181840152602081019050611549565b83811115611573576000848401525b50505050565b6000600282049050600182168061159157607f821691505b602082108114156115a5576115a46115da565b5b50919050565b7f4e487b7100000000000000000000000000000000000000000000000000000000600052601160045260246000fd5b7f4e487b7100000000000000000000000000000000000000000000000000000000600052602260045260246000fd5b6000601f19601f8301169050919050565b7f45524332303a207472616e7366657220746f20746865207a65726f206164647260008201527f6573730000000000000000000000000000000000000000000000000000000000602082015250565b7f4f776e61626c653a206e6577206f776e657220697320746865207a65726f206160008201527f6464726573730000000000000000000000000000000000000000000000000000602082015250565b7f45524332303a20617070726f766520746f20746865207a65726f20616464726560008201527f7373000000000000000000000000000000000000000000000000000000000000602082015250565b7f45524332303a20696e73756666696369656e7420616c6c6f77616e6365000000600082015250565b7f45524332303a207472616e7366657220616d6f756e742065786365656473206260008201527f616c616e63650000000000000000000000000000000000000000000000000000602082015250565b7f4f776e61626c653a2063616c6c6572206973206e6f7420746865206f776e6572600082015250565b7f45524332303a207472616e736665722066726f6d20746865207a65726f20616460008201527f6472657373000000000000000000000000000000000000000000000000000000602082015250565b7f45524332303a20617070726f76652066726f6d20746865207a65726f2061646460008201527f7265737300000000000000000000000000000000000000000000000000000000602082015250565b7f45524332303a2064656372656173656420616c6c6f77616e63652062656c6f7760008201527f207a65726f000000000000000000000000000000000000000000000000000000602082015250565b7f45524332303a206d696e7420746f20746865207a65726f206164647265737300600082015250565b6118c7816114f1565b81146118d257600080fd5b50565b6118de8161152f565b81146118e957600080fd5b5056fea26469706673582212204114dfb1b5325d61e6283aa154eac89b42a0dc05965713d521fccdc7bf62bd4864736f6c63430008020033",
	"linkReferences": {},
	"deployedLinkReferences": {}
}